:100000000C9434000C9453000C9451000C94510047
:100010000C9451000C9451000C9451000C9451001C
:100020000C9451000C9451000C9451000C9451000C
:100030000C9451000C9451000C9451000C945100FC
:100040000C9451000C9451000C9451000C945100EC
:100050000C9451000C9451000C9451000C945100DC
:100060000C9451000C94510011241FBECFEFD8E026
:10007000DEBFCDBF11E0A0E0B1E0EEE0F1E002C0F4
:1000800005900D92A030B107D9F711E0A0E0B1E0E2
:1000900001C01D92A030B107E1F70E947B000C94D3
:1000A00085000C9400001F920F920FB60F9211243E
:1000B0008F939F93AF93BF938FEF85B98FEF93ED9E
:1000C000A0E381509040A040E1F700C0000015B8C7
:1000D0008FEF93EDA0E381509040A040E1F700C086
:1000E00000001CBABF91AF919F918F910F900FBEEE
:1000F0000F901F9018958FEF84B99BEF9AB98BB929
:0E01000010926900E89A7894FFCFF894FFCF30
:00000001FF
