S01800004763634170706C69636174696F6E31302E737265632A
S11300000C942A000C9447000C9447000C9447006D
S11300100C9447000C9447000C9447000C94470040
S11300200C9447000C9447000C9447000C94470030
S11300300C9447000C9447000C9447000C94470020
S11300400C9447000C9447000C9447000C94470010
S11300500C94470011241FBECFE5D8E0DEBFCDBF0E
S113006010E0A0E6B0E0EEE9F4E002C005900D92E5
S1130070A436B107D9F710E0A4E6B0E001C01D92A0
S1130080A436B107E1F70E94AD000C944D020C9424
S11300900000C09885BBC19A8FE19EE40197F1F7F7
S11300A000C00000C1988FE19EE40197F1F700C001
S11300B000000895C09A85BBC19A8FE19EE4019720
S11300C0F1F700C00000C1988FE19EE40197F1F7B9
S11300D000C000000895CF93DF93EC01888188234A
S11300E031F021960E945A0089918823D9F7DF9133
S11300F0CF910895CF93DF93EB01FB01E40FF11D42
S11301001082442399F041502AE030E001C0452F89
S1130110FE01E40FF11DB9010E943902805D808364
S1130120862F972F542F5150442389F7DF91CF9175
S113013008958770806487B985E886B985E38A95D0
S1130140F1F70000369A3699FECF84B190E045B1BC
S1130150342F20E0822B932B0895CF93DF9300D08C
S113016000D00F92CDB7DEB783E087BB8FEF84BB9F
S113017081E081BB8FE19EE40197F1F700C00000AC
S113018080E30E9449008FE19EE40197F1F700C0EB
S1130190000080E30E9449008FE19EE40197F1F79B
S11301A000C0000080E30E9449008FE19EE40197B3
S11301B0F1F700C0000088E30E9449008FE19EE44B
S11301C00197F1F700C0000081E00E94490086E039
S11301D00E9449008CE00E94490080E80E94490086
S11301E000E610E080E090E00E9499009C01B901D3
S11301F0882777FD8095982F0E944A0126EF38E2E0
S11302004CE950E40E94AE010E941C01DC01CB01C8
S1130210BE016F5F7F4F44E00E947A0080E80E9435
S11302204900CE0101960E946B0085E80E944900B6
S1130230C8010E946B00D6CF70D088F09F5790F011
S1130240B92F9927B751A0F0D1F0660F771F881FF7
S1130250991F1AF0BA95C9F712C0B13081F077D05E
S1130260B1E0089574C0672F782F8827B85F39F0FC
S1130270B93FCCF3869577956795B395D9F73EF456
S113028090958095709561957F4F8F4F9F4F0895FE
S1130290E89409C097FB3EF490958095709561951C
S11302A07F4F8F4F9F4F9923A9F0F92F96E9BB27D2
S11302B09395F695879577956795B795F111F8CF4E
S11302C0FAF4BB0F11F460FF1BC06F5F7F4F8F4FB9
S11302D09F4F16C0882311F096E911C0772321F0AF
S11302E09EE8872F762F05C0662371F096E8862F47
S11302F070E060E02AF09A95660F771F881FDAF79E
S1130300880F9695879597F9089557FD9058440F4F
S1130310551F59F05F3F71F04795880F97FB991F60
S113032061F09F3F79F0879508951216130614061D
S1130330551FF2CF4695F1DF08C0161617061806AA
S1130340991FF1CF86957105610508940895E89485
S1130350BB2766277727CB0197F908950BD078C080
S113036069D028F06ED018F0952309F05AC05FC008
S11303701124EECFCADFA0F3959FD1F3950F50E07F
S1130380551F629FF001729FBB27F00DB11D639F43
S1130390AA27F00DB11DAA1F649F6627B00DA11DE9
S11303A0661F829F2227B00DA11D621F739FB00D8F
S11303B0A11D621F839FA00D611D221F749F3327FF
S11303C0A00D611D231F849F600D211D822F762F98
S11303D06A2F11249F5750408AF0E1F088234AF095
S11303E0EE0FFF1FBB1F661F771F881F91505040E1
S11303F0A9F79E3F510570F014C0AACF5F3FECF3FC
S1130400983EDCF3869577956795B795F795E795CC
S11304109F5FC1F7FE2B880F911D9695879597F9DD
S1130420089597F99F6780E870E060E008959FEF72
S113043080EC089500240A94161617061806090677
S1130440089500240A941216130614060506089546
S1130450092E0394000C11F4882352F0BB0F40F4CE
S1130460BF2B11F460FF04C06F5F7F4F8F4F9F4F0E
S11304700895AA1BBB1B51E107C0AA1FBB1FA617E7
S1130480B70710F0A61BB70B881F991F5A95A9F739
S111049080959095BC01CD010895F894FFCF9E
S107049E6D56000093
S9030000FC
