S00F0000333238206932632E737265635A
S11300000C9434000C9451000C9451000C94510045
S11300100C9451000C9451000C9451000C94510018
S11300200C9451000C9451000C9451000C94510008
S11300300C9451000C9451000C9451000C945100F8
S11300400C9451000C9451000C9451000C945100E8
S11300500C9451000C9451000C9451000C945100D8
S11300600C9451000C94510011241FBECFEFD8E022
S1130070DEBFCDBF11E0A0E0B1E0E6E6F3E002C0F0
S113008005900D92A030B107D9F711E0A0E0B1E0DE
S113009001C01D92A030B107E1F70E9411010C9438
S11300A0B1010C9400001092B90082E18093B80071
S11300B084E08093BC00089584EA8093BC00ECEB58
S11300C0F0E080818823ECF7089584E98093BC00F4
S11300D008958093BB0084E88093BC00ECEBF0E0CF
S11300E080818823ECF7089584EC8093BC00ECEBCA
S11300F0F0E080818823ECF78091BB00089584E8C8
S11301008093BC00ECEBF0E080818823ECF78091D5
S1130110BB000895CF93DF93D82FC62F8FE39CE9BC
S11301200197F1F700C000000E945C0080ED0E947E
S113013069008D2F0E9469008C2F0E9469000E9423
S11301406500DF91CF910895CF93C82F8FE39CE989
S11301500197F1F700C000000E945C0080ED0E944E
S113016069008C2F0E9469000E945C0081ED0E944E
S113017069000E947F00C82F0E9465008C2FCF91D8
S1130180089528988BB9299A8FE19EE40197F1F795
S113019000C0000029988FE19EE40197F1F700C0A8
S11301A000000895289A8BB9299A8FE19EE401975B
S11301B0F1F700C0000029988FE19EE40197F1F760
S11301C000C000000895CF93DF93EC018881882359
S11301D031F021960E94D20089918823D9F7DF91CA
S11301E0CF910895CF93DF93EB01FB01E40FF11D51
S11301F01082442399F041502AE030E001C0452F99
S1130200FE01E40FF11DB9010E949D01805D808310
S1130210862F972F542F5150442389F7DF91CF9184
S113022008950E94530083E084B98FEF8AB98FE167
S11302309EE40197F1F700C0000080E30E94C10032
S1130240AFE1BEE41197F1F700C0000080E30E9423
S1130250C1008FE19EE40197F1F700C0000080E344
S11302600E94C100AFE1BEE41197F1F700C00000A5
S113027088E30E94C1008FE19EE40197F1F700C07A
S1130280000081E00E94C10086E00E94C1008CE071
S11302900E94C10080E80E94C10080E060E50E94E5
S11302A08A0081E066E30E948A0082E061E20E94A3
S11302B08A0080E00E94A400C82F81E00E94A4006C
S11302C0D82F82E00E94A400182F81E00E94C10070
S11302D080E80E94C100812F82958F708370805DB9
S11302E00E94D200812F8F70805D0E94D2008AE329
S11302F00E94D2008D2F82958F70805D0E94D20063
S11303008D2F8F70805D0E94D2008AE30E94D200FC
S11303108C2F82958F70805D0E94D2008C2F8F70FD
S1130320805D0E94D2008FEF93EDA0E38150904056
S1130330A040E1F700C00000BCCFAA1BBB1B51E1E9
S113034007C0AA1FBB1FA617B70710F0A61BB70B41
S1130350881F991F5A95A9F780959095BC01CD01E6
S10903600895F894FFCF9C
S9030000FC
