:100000000C9434000C9451000C9451000C94510049
:100010000C9451000C9451000C9451000C9451001C
:100020000C9451000C9451000C9451000C9451000C
:100030000C9451000C9451000C9451000C945100FC
:100040000C9453000C9451000C9451000C945100EA
:100050000C9451000C9451000C9451000C945100DC
:100060000C9451000C94510011241FBECFEFD8E026
:10007000DEBFCDBF11E0A0E0B1E0E8E0F1E002C0FA
:1000800005900D92A030B107D9F711E0A0E0B1E0E2
:1000900001C01D92A230B107E1F70E9476000C94D6
:1000A00082000C9400001F920F920FB60F92112441
:1000B0008F939F93809100019091010101969093FD
:1000C000010180930001883C910539F485B1809548
:1000D00085B9109201011092000181EB86BD9F91BC
:1000E0008F910F900FBE0F901F9018958FEF84B9CE
:1000F00015B8789485E085BD81EB86BD81E080935D
:080100006E00FFCFF894FFCF61
:00000001FF
