:100000000C942A000C9447000C9447000C94470071
:100010000C9447000C9447000C9447000C94470044
:100020000C9447000C9447000C9447000C94470034
:100030000C9447000C9447000C9447000C94470024
:100040000C9447000C9447000C9447000C94470014
:100050000C94470011241FBECFE5D8E0DEBFCDBF12
:1000600010E0A0E6B0E0EAEEF0E002C005900D92EC
:10007000AE36B107D9F710E0AEE6B0E001C01D9290
:10008000AE36B107E1F70E9452000C9473000C9455
:10009000000080EB87BB89E58DB908958FB9779B08
:1000A000FECF08950E94490010E00F2EF0E6EF2EDB
:1000B000F0E0FF2EF02D00E0E701C10FD11D888197
:1000C0000E944E001F5F88810E944E008FEF93EDCB
:1000D000A0E381509040A040E1F700C000001B3039
:0A00E00058F3102FE9CFF894FFCF7A
:0E00EA0000CF92864226228F020606030000F7
:00000001FF
