S01700004763634170706C69636174696F6E352E7372656357
S11300000C942A000C9447000C9447000C9447006D
S11300100C9447000C9447000C9447000C94470040
S11300200C9447000C9447000C9447000C94470030
S11300300C9447000C9447000C9447000C94470020
S11300400C9447000C9447000C9447000C94470010
S11300500C94470011241FBECFE5D8E0DEBFCDBF0E
S113006010E0A0E6B0E0E6EFF0E002C005900D92EB
S1130070AA36B107D9F710E0AAE6B0E001C01D9294
S1130080AA36B107E1F70E9449000C9479000C9458
S11300900000CF93DF93CDB7DEB72A970FB6F8945D
S11300A0DEBF0FBECDBF8FEF84BBDE011196E0E64D
S11300B0F0E08AE001900D928150E1F780E090E059
S11300C020E030E0E1E0F0E0EC0FFD1FE80FF91F65
S11300D0408145BB4FEF53ED60E3415050406040D9
S11300E0E1F700C0000001968A3091055CF3C90174
S10900F0E9CFF894FFCFF4
S10D00F6029E240C9848401E0008E6
S9030000FC
