:100000000C942A000C9447000C9447000C94470071
:100010000C9447000C9447000C9447000C94470044
:100020000C9447000C9447000C9447000C94490032
:100030000C9447000C9447000C9447000C94470024
:100040000C9447000C9447000C9447000C94470014
:100050000C94470011241FBECFE5D8E0DEBFCDBF12
:1000600010E0A0E6B0E0E2EFF0E002C005900D92F3
:10007000A036B107D9F710E0A0E6B0E001C01D92AC
:10008000A236B107E1F70E946C000C9477000C9443
:1000900000001F920F920FB60F9211248F939F931F
:1000A000809160009091610001969093610080932F
:1000B0006000883C910539F488B3809588BB109224
:1000C00061001092600081EB82BF9F918F910F9031
:1000D0000FBE0F901F9018958FEF87BB18BA7894BA
:1000E00085E083BF81EB82BF81E089BFFFCFF894B9
:0200F000FFCF40
:00000001FF
