:100000000C9434000C9451000C9451000C94510049
:100010000C9451000C9451000C9451000C9451001C
:100020000C9451000C9451000C9451000C9451000C
:100030000C9451000C9451000C9451000C945100FC
:100040000C9451000C9451000C9451000C945100EC
:100050000C9451000C9451000C9451000C945100DC
:100060000C9451000C94510011241FBECFEFD8E026
:10007000DEBFCDBF11E0A0E0B1E0E2EFF1E002C0F1
:1000800005900D92A830B107D9F711E0A8E0B1E0D2
:1000900001C01D92A830B107E1F70E94A7000C949F
:1000A000F7000C94000028988BB9299A299882951A
:1000B000807F8BB9299A29988FE19EE40197F1F707
:1000C00000C000000895289AEFE1FEE43197F1F7AF
:1000D00000C000008BB9299A29988295807F8BB93E
:1000E000299A29988FE19EE40197F1F700C000005A
:1000F0000895CF93DF93EC018881882331F0219616
:100100000E94630089918823D9F7DF91CF910895E8
:10011000CF93DF93EB01FB01E40FF11D1082442329
:1001200099F041502AE030E001C0452FFE01E40F74
:10013000F11DB9010E94E300805D8083862F972F17
:10014000542F5150442389F7DF91CF91089583E0D4
:1001500084B98FEF8AB98FE19EE40197F1F700C06F
:1001600000008FE19EE40197F1F700C000008FE1ED
:100170009EE40197F1F700C0000080E30E94530065
:100180008FE19EE40197F1F700C0000088E20E9431
:1001900053008FE19EE40197F1F700C0000081E079
:1001A0000E94530086E00E9453008CE00E9453009E
:1001B00080E80E94530081E00E94530080E091E0BB
:1001C0000E947900FFCFAA1BBB1B51E107C0AA1FE9
:1001D000BB1FA617B70710F0A61BB70B881F991FE8
:1001E0005A95A9F780959095BC01CD010895F89492
:0201F000FFCF3F
:0801F2006E696B68696C000086
:00000001FF
