S00F0000333238206C63642E7372656325
S11300000C9434000C9451000C9451000C94510045
S11300100C9451000C9451000C9451000C94510018
S11300200C9451000C9451000C9451000C94510008
S11300300C9451000C9451000C9451000C945100F8
S11300400C9451000C9451000C9451000C945100E8
S11300500C9451000C9451000C9451000C945100D8
S11300600C9451000C94510011241FBECFEFD8E022
S1130070DEBFCDBF11E0A0E0B1E0E4EFF1E002C0EB
S113008005900D92A231B107D9F711E0A2E1B1E0D8
S113009001C01D92A231B107E1F70E94A3000C94A4
S11300A0F8000C94000028988BB9299A8FE19EE4FB
S11300B00197F1F700C0000029988FE19EE40197B1
S11300C0F1F700C000000895289A8BB9299A8FE1AE
S11300D09EE40197F1F700C0000029988FE19EE4A7
S11300E00197F1F700C000000895CF93DF93EC016E
S11300F08881882331F021960E94640089918823A5
S1130100D9F7DF91CF910895CF93DF93EB01FB01F2
S1130110E40FF11D1082442399F041502AE030E0AD
S113012001C0452FFE01E40FF11DB9010E94E40056
S1130130805D8083862F972F542F5150442389F755
S1130140DF91CF91089583E084B98FEF8AB98FE16D
S11301509EE40197F1F700C0000080E30E94530081
S11301608FE19EE40197F1F700C0000080E30E9454
S113017053008FE19EE40197F1F700C0000080E393
S11301800E9453008FE19EE40197F1F700C0000044
S113019088E30E9453008FE19EE40197F1F700C0C9
S11301A0000081E00E94530086E00E9453008CE02E
S11301B00E94530080E80E94530080E091E00E9476
S11301C0750080E090E00895AA1BBB1B51E107C0B5
S11301D0AA1FBB1FA617B70710F0A61BB70B881FD3
S11301E0991F5A95A9F780959095BC01CD01089562
S10701F0F894FFCFAD
S11301F46E696B68696C206A6F73657068206A6FD6
S10502040000F4
S9030000FC
