S00F0000333238206164632E7372656330
S11300000C9434000C9451000C9451000C94510045
S11300100C9451000C9451000C9451000C94510018
S11300200C9451000C9451000C9451000C94510008
S11300300C9451000C9451000C9451000C945100F8
S11300400C9451000C9451000C9451000C945100E8
S11300500C9451000C9451000C9451000C945100D8
S11300600C9451000C94510011241FBECFEFD8E022
S1130070DEBFCDBF11E0A0E0B1E0EEEBF4E002C0E2
S113008005900D92A430B107D9F711E0A4E0B1E0D6
S113009001C01D92A430B107E1F70E94BF000C9487
S11300A05D020C94000028988BB9299A8FE19EE494
S11300B00197F1F700C0000029988FE19EE40197B1
S11300C0F1F700C000000895289A8BB9299A8FE1AE
S11300D09EE40197F1F700C0000029988FE19EE4A7
S11300E00197F1F700C000000895CF93DF93EC016E
S11300F08881882331F021960E94640089918823A5
S1130100D9F7DF91CF910895CF93DF93EB01FB01F2
S1130110E40FF11D1082442399F041502AE030E0AD
S113012001C0452FFE01E40FF11DB9010E944902EF
S1130130805D8083862F972F542F5150442389F755
S1130140DF91CF9108958770806480937C00EAE703
S1130150F0E085E8808385E38A95F1F700008081EB
S113016080648083808186FDFDCF8091780090E05B
S113017040917900342F20E0822B932B0895CF9364
S1130180DF9300D000D00F92CDB7DEB783E084B9FF
S11301908FEF8AB98FE19EE40197F1F700C0000068
S11301A080E30E9453008FE19EE40197F1F700C0C1
S11301B0000080E30E9453008FE19EE40197F1F771
S11301C000C0000080E30E9453008FE19EE4019789
S11301D0F1F700C0000088E30E9453008FE19EE421
S11301E00197F1F700C0000081E00E94530086E00F
S11301F00E9453008CE00E94530080E80E94530048
S113020000E011E080E090E00E94A3009C01B901AD
S1130210882777FD8095982F0E945A0126EF38E2AF
S11302204CE950E40E94BE010E942C01DC01CB0188
S1130230BE016F5F7F4F44E00E94840080E80E940B
S11302405300CE0101960E94750085E80E94530078
S1130250C8010E947500D6CF70D088F09F5790F0E7
S1130260B92F9927B751A0F0D1F0660F771F881FD7
S1130270991F1AF0BA95C9F712C0B13081F077D03E
S1130280B1E0089574C0672F782F8827B85F39F0DC
S1130290B93FCCF3869577956795B395D9F73EF436
S11302A090958095709561957F4F8F4F9F4F0895DE
S11302B0E89409C097FB3EF49095809570956195FC
S11302C07F4F8F4F9F4F9923A9F0F92F96E9BB27B2
S11302D09395F695879577956795B795F111F8CF2E
S11302E0FAF4BB0F11F460FF1BC06F5F7F4F8F4F99
S11302F09F4F16C0882311F096E911C0772321F08F
S11303009EE8872F762F05C0662371F096E8862F26
S113031070E060E02AF09A95660F771F881FDAF77D
S1130320880F9695879597F9089557FD9058440F2F
S1130330551F59F05F3F71F04795880F97FB991F40
S113034061F09F3F79F087950895121613061406FD
S1130350551FF2CF4695F1DF08C01616170618068A
S1130360991FF1CF86957105610508940895E89465
S1130370BB2766277727CB0197F908950BD078C060
S113038069D028F06ED018F0952309F05AC05FC0E8
S11303901124EECFCADFA0F3959FD1F3950F50E05F
S11303A0551F629FF001729FBB27F00DB11D639F23
S11303B0AA27F00DB11DAA1F649F6627B00DA11DC9
S11303C0661F829F2227B00DA11D621F739FB00D6F
S11303D0A11D621F839FA00D611D221F749F3327DF
S11303E0A00D611D231F849F600D211D822F762F78
S11303F06A2F11249F5750408AF0E1F088234AF075
S1130400EE0FFF1FBB1F661F771F881F91505040C0
S1130410A9F79E3F510570F014C0AACF5F3FECF3DB
S1130420983EDCF3869577956795B795F795E795AC
S11304309F5FC1F7FE2B880F911D9695879597F9BD
S1130440089597F99F6780E870E060E008959FEF52
S113045080EC089500240A94161617061806090657
S1130460089500240A941216130614060506089526
S1130470092E0394000C11F4882352F0BB0F40F4AE
S1130480BF2B11F460FF04C06F5F7F4F8F4F9F4FEE
S11304900895AA1BBB1B51E107C0AA1FBB1FA617C7
S11304A0B70710F0A61BB70B881F991F5A95A9F719
S11104B080959095BC01CD010895F894FFCF7E
S10704BE6D56000073
S9030000FC
