:100000000C942A000C9447000C9447000C94470071
:100010000C9447000C9447000C9447000C94470044
:100020000C9447000C9447000C9447000C94470034
:100030000C9447000C94A0000C9447000C944700CB
:100040000C9447000C9447000C9447000C94470014
:100050000C94470011241FBECFE5D8E0DEBFCDBF12
:1000600010E0A0E6B0E0ECE0F5E002C005900D92F3
:10007000A23AB107D9F710E0A2EAB0E001C01D92A0
:10008000AF3EB107E1F70E9408020C9484020C9481
:10009000000098B39C7F98BB85BBC29AC29882959A
:1000A000807F85BBC29AC2988FE19EE40197F1F7E9
:1000B00000C000000895C09AC19885BBC29AC2983A
:1000C0008295807F85BBC29A8FE19EE40197F1F70C
:1000D00000C00000C2988FE19EE40197F1F700C0D4
:1000E00000000895CF93DF93EC018881882331F0DD
:1000F00021960E945B0089918823D9F7DF91CF91E7
:100100000895CF93DF93EB01FB01E40FF11D108203
:10011000442399F041502AE030E001C0452FFE0110
:10012000E40FF11DB9010E946702805D8083862F74
:10013000972F542F5150442389F7DF91CF91089581
:100140001F920F920FB60F9211242F938F939F93AC
:10015000EF93FF938CB18093EE008091C4008823CD
:1001600061F48091EE00843271F581E08093C400E7
:100170001092A3001092A20026C08091EE008A3255
:1001800099F41092C400E091A200F091A300EB5307
:10019000FF4F108281E08093AA001092A30010927A
:1001A000A2001092A9000FC08091A2009091A3001C
:1001B0002091EE00FC01EB53FF4F208301969093BA
:1001C000A3008093A2008091A9008823C1F58091AB
:1001D000AF00882381F48091EE00833481F5809311
:1001E000B00081E08093AF0081E090E09093A700A1
:1001F0008093A60024C08091EE008D3089F4109287
:10020000AF00E091A600F091A700E055FF4F1082EB
:1002100081E08093AB001092A7001092A6000FC05F
:100220008091A6009091A7002091EE00FC01E0557E
:10023000FF4F208301969093A7008093A600FF9123
:10024000EF919F918F912F910F900FBE0F901F9064
:100250001895CF93DF930F92CDB7DEB7898380E4F3
:100260008BB989818CB95E9BFECF0F90DF91CF91C6
:100270000895CF93DF93EC018881882331F0219694
:100280000E94290189918823D9F7DF91CF910895A0
:10029000CF93DF938091AB00813009F065C0C0EB54
:1002A000D0E0FE0101900020E9F73197EC1BFD0B37
:1002B000F093AE00E093AD0080EC0E944900CE01C7
:1002C0000E9472008091AD009091AE0001979093D2
:1002D000AE008093AD002FEF33ED40E3215030406E
:1002E0004040E1F700C000008C309105E1F480E669
:1002F00090E00E943901E091AD00F091AE00EC0F6A
:10030000FD1F319780810E9429018091AD0090915D
:10031000AE00C80FD91F88810E94290189E690E0AC
:100320000E94390111C080E690E00E943901E091FD
:10033000AD00F091AE00E055FF4F80810E94290191
:1003400089E690E00E94390180EB90E06CE670E075
:100350000E947B02282F392F2115310519F081E0E9
:100360008093A9001092AB008091AA00813009F01F
:1003700041C00E94490080E80E94490085EC90E05D
:100380000E9472008091AD009091AE008C3091057A
:10039000F1F484E790E00E943901C0EBD0E0E091F5
:1003A000AD00F091AE00EC0FFD1F319780810E94EF
:1003B00029018091AD009091AE00C80FD91F8881AE
:1003C0000E94290189E690E00E94390111C084E76A
:1003D00090E00E943901E091AD00F091AE00E0554F
:1003E000FF4F80810E94290189E690E00E94390137
:1003F0001092AA008FEF93E2A4EF81509040A040AA
:10040000E1F700C000001092A900DF91CF9108959C
:100410008FEF87BB10BC97E699B91BB898E99AB9DA
:1004200096E890BD789497E097BB84BB8FE19EE4FB
:100430000197F1F700C0000080E385BBAFE1BEE4A7
:100440001197F1F700C0000085BBEFE1FEE43197A2
:10045000F1F700C000000E9449008FE19EE401977F
:10046000F1F700C0000088E20E944900AFE1BEE45D
:100470001197F1F700C0000081E00E94490086E07A
:100480000E9449008CE00E94490080E80E944900D7
:1004900080E80E9449008DE790E00E94720081E8A8
:1004A00090E00E9439018FEF93E2A4EF81509040D9
:1004B000A040E1F700C0000086E890E00E9439010A
:1004C0008DE890E00E9439010E944801FDCFAA1BEF
:1004D000BB1B51E107C0AA1FBB1FA617B70710F02F
:1004E000A61BB70B881F991F5A95A9F78095909561
:1004F000BC01CD010895FB01DC018D9101908019B3
:0C0500000110D9F3990B0895F894FFCF77
:10050C0041542B434D47523D000D0A00434152527A
:10051C004945520041542B434D47443D006E6A6A95
:10052C000041540D0A00415445300D0A0041542B32
:10053C00434E4D493D322C312C302C302C300D0A91
:02054C000000AD
:04000005008000ED8A
:00000001FF
