S0120000333238207561727420342E7372656345
S11300000C9434000C9451000C9451000C94510045
S11300100C9451000C9451000C9451000C94510018
S11300200C9451000C9451000C9451000C94510008
S11300300C9451000C9451000C9451000C945100F8
S11300400C9451000C9451000C9453000C945100E6
S11300500C9451000C9451000C9451000C945100D8
S11300600C9451000C94510011241FBECFEFD8E022
S1130070DEBFCDBF11E0A0E0B1E0E0E4F4E002C0F7
S113008005900D92A834B107D9F711E0A8E4B1E0C6
S113009001C01D92A339B107E1F70E943B010C9402
S11300A01E020C9400001F920F920FB60F9211249F
S11300B02F938F939F93EF93FF938091C600809328
S11300C0920180916801882361F4809192018432C5
S11300D071F581E080936801109249011092480102
S11300E026C0809192018A3299F410926801E091BD
S11300F04801F0914901E759FE4F108281E0809355
S11301005001109249011092480110924F010FC002
S1130110809148019091490120919201FC01E75995
S1130120FE4F20830196909349018093480180916A
S11301304F01882309F071C080919101882381F4D3
S113014080919201823589F580937D0181E08093CD
S1130150910181E090E090934B0180934A0125C086
S113016080919201873491F410929101E0914A01B7
S1130170F0914B01E358FE4F8083118281E080931C
S1130180520110924B0110924A010FC080914A0112
S113019090914B0120919201FC01E358FE4F208382
S11301A0019690934B0180934A01809153018823D7
S11301B081F480919201833481F58093540181E02C
S11301C08093530181E090E090934D0180934C0122
S11301D024C0809192018D3089F410925301E091F2
S11301E04C01F0914D01EC5AFE4F108281E0809356
S11301F0510110924D0110924C010FC080914C019D
S113020090914D0120919201FC01EC5AFE4F208304
S1130210019690934D0180934C01FF91EF919F9132
S11302208F912F910F900FBE0F901F901895CF9321
S1130230DF930F92CDB7DEB7898380E48093C0004B
S113024089818093C600E0ECF0E0808186FFFDCFD9
S11302500F90DF91CF910895CF93DF93EC018881C4
S1130260882331F021960E94170189918823D9F7B8
S1130270DF91CF910895CF93DF9300D000D0CDB715
S1130280DEB78FEF84B91092C50097E69093C4004F
S113029090E89093C00098E99093C10096E0909301
S11302A0C200789484B980E091E00E942C018FEF21
S11302B097EAA1E681509040A040E1F700C0000019
S11302C085E091E00E942C018FEF97EAA1E681502E
S11302D09040A040E1F700C000008CE091E00E9453
S11302E02C0100E010E00F2EFDE7AF2EF1E0BF2E51
S11302F0F02D0F2EF0E28F2EF1E09F2EF02D0F2E19
S1130300F4E5EF2EF1E0FF2EF02D0F2EF7E34F2E44
S1130310F1E05F2EF02D0F2EFBE22F2EF1E03F2EA9
S1130320F02D0F2EF4E3CF2EF1E0DF2EF02DD701C8
S11303301C96BA83A9830F2EFFE36F2EF1E07F2E64
S1130340F02D80915201813079F4C501B4010E94ED
S11303501502282F392F2115310521F485E291E06A
S11303600E942C011092520180915101813009F0B8
S113037048C0F70101900020E9F73197CF018E19A9
S11303809F099C838B838C01015010408FEF9BE766
S1130390A2E981509040A040E1F700C000000C3079
S11303A01105A9F4C1010E942C018B819C818E0D41
S11303B09F1D0297DC018C910E941701E981FA814B
S11303C080810E941701C6010E942C010CC0C1014A
S11303D00E942C01F701E00FF11F80810E94170198
S11303E0C6010E942C01C701B2010E941502282FE8
S11303F0392F2115310519F0F1E0F0934F011092D6
S1130400510180915001813009F09BCFC3010E94BA
S11304102C01F701E00FF11F80810E941701C60132
S11304200E942C01109250018CCFFB01DC018D91B4
S1130430019080190110D9F3990B0895F894FFCF16
S113044041540D0A00415445300D0A0041542B43D8
S11304504E4D493D322C312C302C302C300D0A00BD
S113046052494E47004154410D0A0041542B434D1B
S113047047523D000D0A0043415252494552004142
S10B0480542B434D47443D0099
S90301916A
